{
  "_format": "hh-sol-artifact-1",
  "contractName": "CarAuction",
  "sourceName": "contracts/CarAuction.sol",
  "abi": [
    {
      "inputs": [],
      "stateMutability": "nonpayable",
      "type": "constructor"
    },
    {
      "inputs": [
        {
          "internalType": "address",
          "name": "sender",
          "type": "address"
        },
        {
          "internalType": "uint256",
          "name": "tokenId",
          "type": "uint256"
        },
        {
          "internalType": "address",
          "name": "owner",
          "type": "address"
        }
      ],
      "name": "ERC721IncorrectOwner",
      "type": "error"
    },
    {
      "inputs": [
        {
          "internalType": "address",
          "name": "operator",
          "type": "address"
        },
        {
          "internalType": "uint256",
          "name": "tokenId",
          "type": "uint256"
        }
      ],
      "name": "ERC721InsufficientApproval",
      "type": "error"
    },
    {
      "inputs": [
        {
          "internalType": "address",
          "name": "approver",
          "type": "address"
        }
      ],
      "name": "ERC721InvalidApprover",
      "type": "error"
    },
    {
      "inputs": [
        {
          "internalType": "address",
          "name": "operator",
          "type": "address"
        }
      ],
      "name": "ERC721InvalidOperator",
      "type": "error"
    },
    {
      "inputs": [
        {
          "internalType": "address",
          "name": "owner",
          "type": "address"
        }
      ],
      "name": "ERC721InvalidOwner",
      "type": "error"
    },
    {
      "inputs": [
        {
          "internalType": "address",
          "name": "receiver",
          "type": "address"
        }
      ],
      "name": "ERC721InvalidReceiver",
      "type": "error"
    },
    {
      "inputs": [
        {
          "internalType": "address",
          "name": "sender",
          "type": "address"
        }
      ],
      "name": "ERC721InvalidSender",
      "type": "error"
    },
    {
      "inputs": [
        {
          "internalType": "uint256",
          "name": "tokenId",
          "type": "uint256"
        }
      ],
      "name": "ERC721NonexistentToken",
      "type": "error"
    },
    {
      "inputs": [
        {
          "internalType": "address",
          "name": "owner",
          "type": "address"
        }
      ],
      "name": "OwnableInvalidOwner",
      "type": "error"
    },
    {
      "inputs": [
        {
          "internalType": "address",
          "name": "account",
          "type": "address"
        }
      ],
      "name": "OwnableUnauthorizedAccount",
      "type": "error"
    },
    {
      "anonymous": false,
      "inputs": [
        {
          "indexed": true,
          "internalType": "address",
          "name": "owner",
          "type": "address"
        },
        {
          "indexed": true,
          "internalType": "address",
          "name": "approved",
          "type": "address"
        },
        {
          "indexed": true,
          "internalType": "uint256",
          "name": "tokenId",
          "type": "uint256"
        }
      ],
      "name": "Approval",
      "type": "event"
    },
    {
      "anonymous": false,
      "inputs": [
        {
          "indexed": true,
          "internalType": "address",
          "name": "owner",
          "type": "address"
        },
        {
          "indexed": true,
          "internalType": "address",
          "name": "operator",
          "type": "address"
        },
        {
          "indexed": false,
          "internalType": "bool",
          "name": "approved",
          "type": "bool"
        }
      ],
      "name": "ApprovalForAll",
      "type": "event"
    },
    {
      "anonymous": false,
      "inputs": [
        {
          "indexed": true,
          "internalType": "uint256",
          "name": "tokenId",
          "type": "uint256"
        },
        {
          "indexed": true,
          "internalType": "address",
          "name": "winner",
          "type": "address"
        },
        {
          "indexed": false,
          "internalType": "uint256",
          "name": "amount",
          "type": "uint256"
        }
      ],
      "name": "AuctionEnded",
      "type": "event"
    },
    {
      "anonymous": false,
      "inputs": [
        {
          "indexed": true,
          "internalType": "uint256",
          "name": "tokenId",
          "type": "uint256"
        },
        {
          "indexed": true,
          "internalType": "address",
          "name": "bidder",
          "type": "address"
        },
        {
          "indexed": false,
          "internalType": "uint256",
          "name": "amount",
          "type": "uint256"
        }
      ],
      "name": "BidPlaced",
      "type": "event"
    },
    {
      "anonymous": false,
      "inputs": [
        {
          "indexed": true,
          "internalType": "uint256",
          "name": "tokenId",
          "type": "uint256"
        },
        {
          "indexed": true,
          "internalType": "address",
          "name": "seller",
          "type": "address"
        },
        {
          "indexed": false,
          "internalType": "uint256",
          "name": "startPrice",
          "type": "uint256"
        }
      ],
      "name": "CarListed",
      "type": "event"
    },
    {
      "anonymous": false,
      "inputs": [
        {
          "indexed": true,
          "internalType": "address",
          "name": "previousOwner",
          "type": "address"
        },
        {
          "indexed": true,
          "internalType": "address",
          "name": "newOwner",
          "type": "address"
        }
      ],
      "name": "OwnershipTransferred",
      "type": "event"
    },
    {
      "anonymous": false,
      "inputs": [
        {
          "indexed": true,
          "internalType": "address",
          "name": "from",
          "type": "address"
        },
        {
          "indexed": true,
          "internalType": "address",
          "name": "to",
          "type": "address"
        },
        {
          "indexed": true,
          "internalType": "uint256",
          "name": "tokenId",
          "type": "uint256"
        }
      ],
      "name": "Transfer",
      "type": "event"
    },
    {
      "inputs": [
        {
          "internalType": "address",
          "name": "to",
          "type": "address"
        },
        {
          "internalType": "uint256",
          "name": "tokenId",
          "type": "uint256"
        }
      ],
      "name": "approve",
      "outputs": [],
      "stateMutability": "nonpayable",
      "type": "function"
    },
    {
      "inputs": [
        {
          "internalType": "uint256",
          "name": "",
          "type": "uint256"
        }
      ],
      "name": "auctions",
      "outputs": [
        {
          "internalType": "address",
          "name": "seller",
          "type": "address"
        },
        {
          "internalType": "uint256",
          "name": "startPrice",
          "type": "uint256"
        },
        {
          "internalType": "uint256",
          "name": "highestBid",
          "type": "uint256"
        },
        {
          "internalType": "address",
          "name": "highestBidder",
          "type": "address"
        },
        {
          "internalType": "bool",
          "name": "isActive",
          "type": "bool"
        }
      ],
      "stateMutability": "view",
      "type": "function"
    },
    {
      "inputs": [
        {
          "internalType": "address",
          "name": "owner",
          "type": "address"
        }
      ],
      "name": "balanceOf",
      "outputs": [
        {
          "internalType": "uint256",
          "name": "",
          "type": "uint256"
        }
      ],
      "stateMutability": "view",
      "type": "function"
    },
    {
      "inputs": [
        {
          "internalType": "uint256",
          "name": "tokenId",
          "type": "uint256"
        }
      ],
      "name": "endAuction",
      "outputs": [],
      "stateMutability": "nonpayable",
      "type": "function"
    },
    {
      "inputs": [
        {
          "internalType": "uint256",
          "name": "tokenId",
          "type": "uint256"
        }
      ],
      "name": "getApproved",
      "outputs": [
        {
          "internalType": "address",
          "name": "",
          "type": "address"
        }
      ],
      "stateMutability": "view",
      "type": "function"
    },
    {
      "inputs": [
        {
          "internalType": "address",
          "name": "owner",
          "type": "address"
        },
        {
          "internalType": "address",
          "name": "operator",
          "type": "address"
        }
      ],
      "name": "isApprovedForAll",
      "outputs": [
        {
          "internalType": "bool",
          "name": "",
          "type": "bool"
        }
      ],
      "stateMutability": "view",
      "type": "function"
    },
    {
      "inputs": [
        {
          "internalType": "uint256",
          "name": "startPrice",
          "type": "uint256"
        }
      ],
      "name": "listCar",
      "outputs": [
        {
          "internalType": "uint256",
          "name": "",
          "type": "uint256"
        }
      ],
      "stateMutability": "nonpayable",
      "type": "function"
    },
    {
      "inputs": [],
      "name": "name",
      "outputs": [
        {
          "internalType": "string",
          "name": "",
          "type": "string"
        }
      ],
      "stateMutability": "view",
      "type": "function"
    },
    {
      "inputs": [],
      "name": "owner",
      "outputs": [
        {
          "internalType": "address",
          "name": "",
          "type": "address"
        }
      ],
      "stateMutability": "view",
      "type": "function"
    },
    {
      "inputs": [
        {
          "internalType": "uint256",
          "name": "tokenId",
          "type": "uint256"
        }
      ],
      "name": "ownerOf",
      "outputs": [
        {
          "internalType": "address",
          "name": "",
          "type": "address"
        }
      ],
      "stateMutability": "view",
      "type": "function"
    },
    {
      "inputs": [
        {
          "internalType": "uint256",
          "name": "tokenId",
          "type": "uint256"
        }
      ],
      "name": "placeBid",
      "outputs": [],
      "stateMutability": "payable",
      "type": "function"
    },
    {
      "inputs": [],
      "name": "renounceOwnership",
      "outputs": [],
      "stateMutability": "nonpayable",
      "type": "function"
    },
    {
      "inputs": [
        {
          "internalType": "address",
          "name": "from",
          "type": "address"
        },
        {
          "internalType": "address",
          "name": "to",
          "type": "address"
        },
        {
          "internalType": "uint256",
          "name": "tokenId",
          "type": "uint256"
        }
      ],
      "name": "safeTransferFrom",
      "outputs": [],
      "stateMutability": "nonpayable",
      "type": "function"
    },
    {
      "inputs": [
        {
          "internalType": "address",
          "name": "from",
          "type": "address"
        },
        {
          "internalType": "address",
          "name": "to",
          "type": "address"
        },
        {
          "internalType": "uint256",
          "name": "tokenId",
          "type": "uint256"
        },
        {
          "internalType": "bytes",
          "name": "data",
          "type": "bytes"
        }
      ],
      "name": "safeTransferFrom",
      "outputs": [],
      "stateMutability": "nonpayable",
      "type": "function"
    },
    {
      "inputs": [
        {
          "internalType": "address",
          "name": "operator",
          "type": "address"
        },
        {
          "internalType": "bool",
          "name": "approved",
          "type": "bool"
        }
      ],
      "name": "setApprovalForAll",
      "outputs": [],
      "stateMutability": "nonpayable",
      "type": "function"
    },
    {
      "inputs": [
        {
          "internalType": "bytes4",
          "name": "interfaceId",
          "type": "bytes4"
        }
      ],
      "name": "supportsInterface",
      "outputs": [
        {
          "internalType": "bool",
          "name": "",
          "type": "bool"
        }
      ],
      "stateMutability": "view",
      "type": "function"
    },
    {
      "inputs": [],
      "name": "symbol",
      "outputs": [
        {
          "internalType": "string",
          "name": "",
          "type": "string"
        }
      ],
      "stateMutability": "view",
      "type": "function"
    },
    {
      "inputs": [
        {
          "internalType": "uint256",
          "name": "tokenId",
          "type": "uint256"
        }
      ],
      "name": "tokenURI",
      "outputs": [
        {
          "internalType": "string",
          "name": "",
          "type": "string"
        }
      ],
      "stateMutability": "view",
      "type": "function"
    },
    {
      "inputs": [
        {
          "internalType": "address",
          "name": "from",
          "type": "address"
        },
        {
          "internalType": "address",
          "name": "to",
          "type": "address"
        },
        {
          "internalType": "uint256",
          "name": "tokenId",
          "type": "uint256"
        }
      ],
      "name": "transferFrom",
      "outputs": [],
      "stateMutability": "nonpayable",
      "type": "function"
    },
    {
      "inputs": [
        {
          "internalType": "address",
          "name": "newOwner",
          "type": "address"
        }
      ],
      "name": "transferOwnership",
      "outputs": [],
      "stateMutability": "nonpayable",
      "type": "function"
    }
  ],
  "bytecode": "0x608060405234801562000010575f80fd5b50336040518060400160405280600981526020017f4175746f436861696e00000000000000000000000000000000000000000000008152506040518060400160405280600481526020017f4155544f00000000000000000000000000000000000000000000000000000000815250815f90816200008e919062000455565b508060019081620000a0919062000455565b5050505f73ffffffffffffffffffffffffffffffffffffffff168173ffffffffffffffffffffffffffffffffffffffff160362000116575f6040517f1e4fbdf70000000000000000000000000000000000000000000000000000000081526004016200010d91906200057c565b60405180910390fd5b62000127816200012e60201b60201c565b5062000597565b5f60065f9054906101000a900473ffffffffffffffffffffffffffffffffffffffff1690508160065f6101000a81548173ffffffffffffffffffffffffffffffffffffffff021916908373ffffffffffffffffffffffffffffffffffffffff1602179055508173ffffffffffffffffffffffffffffffffffffffff168173ffffffffffffffffffffffffffffffffffffffff167f8be0079c531659141344cd1fd0a4f28419497f9722a3daafe3b4186f6b6457e060405160405180910390a35050565b5f81519050919050565b7f4e487b71000000000000000000000000000000000000000000000000000000005f52604160045260245ffd5b7f4e487b71000000000000000000000000000000000000000000000000000000005f52602260045260245ffd5b5f60028204905060018216806200026d57607f821691505b60208210810362000283576200028262000228565b5b50919050565b5f819050815f5260205f209050919050565b5f6020601f8301049050919050565b5f82821b905092915050565b5f60088302620002e77fffffffffffffffffffffffffffffffffffffffffffffffffffffffffffffffff82620002aa565b620002f38683620002aa565b95508019841693508086168417925050509392505050565b5f819050919050565b5f819050919050565b5f6200033d6200033762000331846200030b565b62000314565b6200030b565b9050919050565b5f819050919050565b62000358836200031d565b62000370620003678262000344565b848454620002b6565b825550505050565b5f90565b6200038662000378565b620003938184846200034d565b505050565b5b81811015620003ba57620003ae5f826200037c565b60018101905062000399565b5050565b601f8211156200040957620003d38162000289565b620003de846200029b565b81016020851015620003ee578190505b62000406620003fd856200029b565b83018262000398565b50505b505050565b5f82821c905092915050565b5f6200042b5f19846008026200040e565b1980831691505092915050565b5f6200044583836200041a565b9150826002028217905092915050565b6200046082620001f1565b67ffffffffffffffff8111156200047c576200047b620001fb565b5b62000488825462000255565b62000495828285620003be565b5f60209050601f831160018114620004cb575f8415620004b6578287015190505b620004c2858262000438565b86555062000531565b601f198416620004db8662000289565b5f5b828110156200050457848901518255600182019150602085019450602081019050620004dd565b8683101562000524578489015162000520601f8916826200041a565b8355505b6001600288020188555050505b505050505050565b5f73ffffffffffffffffffffffffffffffffffffffff82169050919050565b5f620005648262000539565b9050919050565b620005768162000558565b82525050565b5f602082019050620005915f8301846200056b565b92915050565b612f3b80620005a55f395ff3fe60806040526004361061011e575f3560e01c8063715018a61161009f578063b88d4fde11610063578063b88d4fde146103de578063b9a2de3a14610406578063c87b56dd1461042e578063e985e9c51461046a578063f2fde38b146104a65761011e565b8063715018a6146103305780638da5cb5b1461034657806395d89b41146103705780639979ef451461039a578063a22cb465146103b65761011e565b806340a919e0116100e657806340a919e01461021457806342842e0e14610250578063571a26a0146102785780636352211e146102b857806370a08231146102f45761011e565b806301ffc9a71461012257806306fdde031461015e578063081812fc14610188578063095ea7b3146101c457806323b872dd146101ec575b5f80fd5b34801561012d575f80fd5b50610148600480360381019061014391906123ca565b6104ce565b604051610155919061240f565b60405180910390f35b348015610169575f80fd5b506101726105af565b60405161017f91906124b2565b60405180910390f35b348015610193575f80fd5b506101ae60048036038101906101a99190612505565b61063e565b6040516101bb919061256f565b60405180910390f35b3480156101cf575f80fd5b506101ea60048036038101906101e591906125b2565b610659565b005b3480156101f7575f80fd5b50610212600480360381019061020d91906125f0565b61066f565b005b34801561021f575f80fd5b5061023a60048036038101906102359190612505565b61076e565b604051610247919061264f565b60405180910390f35b34801561025b575f80fd5b50610276600480360381019061027191906125f0565b610912565b005b348015610283575f80fd5b5061029e60048036038101906102999190612505565b610931565b6040516102af959493929190612668565b60405180910390f35b3480156102c3575f80fd5b506102de60048036038101906102d99190612505565b6109ae565b6040516102eb919061256f565b60405180910390f35b3480156102ff575f80fd5b5061031a600480360381019061031591906126b9565b6109bf565b604051610327919061264f565b60405180910390f35b34801561033b575f80fd5b50610344610a75565b005b348015610351575f80fd5b5061035a610a88565b604051610367919061256f565b60405180910390f35b34801561037b575f80fd5b50610384610ab0565b60405161039191906124b2565b60405180910390f35b6103b460048036038101906103af9190612505565b610b40565b005b3480156103c1575f80fd5b506103dc60048036038101906103d7919061270e565b610e22565b005b3480156103e9575f80fd5b5061040460048036038101906103ff9190612878565b610e38565b005b348015610411575f80fd5b5061042c60048036038101906104279190612505565b610e5d565b005b348015610439575f80fd5b50610454600480360381019061044f9190612505565b61118a565b60405161046191906124b2565b60405180910390f35b348015610475575f80fd5b50610490600480360381019061048b91906128f8565b6111f0565b60405161049d919061240f565b60405180910390f35b3480156104b1575f80fd5b506104cc60048036038101906104c791906126b9565b61127e565b005b5f7f80ac58cd000000000000000000000000000000000000000000000000000000007bffffffffffffffffffffffffffffffffffffffffffffffffffffffff1916827bffffffffffffffffffffffffffffffffffffffffffffffffffffffff1916148061059857507f5b5e139f000000000000000000000000000000000000000000000000000000007bffffffffffffffffffffffffffffffffffffffffffffffffffffffff1916827bffffffffffffffffffffffffffffffffffffffffffffffffffffffff1916145b806105a857506105a782611302565b5b9050919050565b60605f80546105bd90612963565b80601f01602080910402602001604051908101604052809291908181526020018280546105e990612963565b80156106345780601f1061060b57610100808354040283529160200191610634565b820191905f5260205f20905b81548152906001019060200180831161061757829003601f168201915b5050505050905090565b5f6106488261136b565b50610652826113f1565b9050919050565b61066b828261066661142a565b611431565b5050565b5f73ffffffffffffffffffffffffffffffffffffffff168273ffffffffffffffffffffffffffffffffffffffff16036106df575f6040517f64a0ae920000000000000000000000000000000000000000000000000000000081526004016106d6919061256f565b60405180910390fd5b5f6106f283836106ed61142a565b611443565b90508373ffffffffffffffffffffffffffffffffffffffff168173ffffffffffffffffffffffffffffffffffffffff1614610768578382826040517f64283d7b00000000000000000000000000000000000000000000000000000000815260040161075f93929190612993565b60405180910390fd5b50505050565b5f8060075f815480929190610782906129f5565b919050559050610792338261164e565b6040518060a001604052803373ffffffffffffffffffffffffffffffffffffffff1681526020018481526020015f81526020015f73ffffffffffffffffffffffffffffffffffffffff1681526020016001151581525060085f8381526020019081526020015f205f820151815f015f6101000a81548173ffffffffffffffffffffffffffffffffffffffff021916908373ffffffffffffffffffffffffffffffffffffffff16021790555060208201518160010155604082015181600201556060820151816003015f6101000a81548173ffffffffffffffffffffffffffffffffffffffff021916908373ffffffffffffffffffffffffffffffffffffffff16021790555060808201518160030160146101000a81548160ff0219169083151502179055509050503373ffffffffffffffffffffffffffffffffffffffff16817f346237025e4b201cfbdb8011c7afcd8a0cc16c50e910d6ac5645ab7406be429d85604051610901919061264f565b60405180910390a380915050919050565b61092c83838360405180602001604052805f815250610e38565b505050565b6008602052805f5260405f205f91509050805f015f9054906101000a900473ffffffffffffffffffffffffffffffffffffffff1690806001015490806002015490806003015f9054906101000a900473ffffffffffffffffffffffffffffffffffffffff16908060030160149054906101000a900460ff16905085565b5f6109b88261136b565b9050919050565b5f8073ffffffffffffffffffffffffffffffffffffffff168273ffffffffffffffffffffffffffffffffffffffff1603610a30575f6040517f89c62b64000000000000000000000000000000000000000000000000000000008152600401610a27919061256f565b60405180910390fd5b60035f8373ffffffffffffffffffffffffffffffffffffffff1673ffffffffffffffffffffffffffffffffffffffff1681526020019081526020015f20549050919050565b610a7d61166b565b610a865f6116f2565b565b5f60065f9054906101000a900473ffffffffffffffffffffffffffffffffffffffff16905090565b606060018054610abf90612963565b80601f0160208091040260200160405190810160405280929190818152602001828054610aeb90612963565b8015610b365780601f10610b0d57610100808354040283529160200191610b36565b820191905f5260205f20905b815481529060010190602001808311610b1957829003601f168201915b5050505050905090565b5f60085f8381526020019081526020015f2090508060030160149054906101000a900460ff16610ba5576040517f08c379a0000000000000000000000000000000000000000000000000000000008152600401610b9c90612a86565b60405180910390fd5b80600201543411610beb576040517f08c379a0000000000000000000000000000000000000000000000000000000008152600401610be290612b14565b60405180910390fd5b8060010154341015610c32576040517f08c379a0000000000000000000000000000000000000000000000000000000008152600401610c2990612ba2565b60405180910390fd5b805f015f9054906101000a900473ffffffffffffffffffffffffffffffffffffffff1673ffffffffffffffffffffffffffffffffffffffff163373ffffffffffffffffffffffffffffffffffffffff1603610cc2576040517f08c379a0000000000000000000000000000000000000000000000000000000008152600401610cb990612c30565b60405180910390fd5b5f73ffffffffffffffffffffffffffffffffffffffff16816003015f9054906101000a900473ffffffffffffffffffffffffffffffffffffffff1673ffffffffffffffffffffffffffffffffffffffff1614610d8457806003015f9054906101000a900473ffffffffffffffffffffffffffffffffffffffff1673ffffffffffffffffffffffffffffffffffffffff166108fc826002015490811502906040515f60405180830381858888f19350505050158015610d82573d5f803e3d5ffd5b505b34816002018190555033816003015f6101000a81548173ffffffffffffffffffffffffffffffffffffffff021916908373ffffffffffffffffffffffffffffffffffffffff1602179055503373ffffffffffffffffffffffffffffffffffffffff16827f0e54eff26401bf69b81b26f60bd85ef47f5d85275c1d268d84f68d6897431c4734604051610e16919061264f565b60405180910390a35050565b610e34610e2d61142a565b83836117b5565b5050565b610e4384848461066f565b610e57610e4e61142a565b8585858561198e565b50505050565b5f60085f8381526020019081526020015f2090508060030160149054906101000a900460ff16610ec2576040517f08c379a0000000000000000000000000000000000000000000000000000000008152600401610eb990612c98565b60405180910390fd5b805f015f9054906101000a900473ffffffffffffffffffffffffffffffffffffffff1673ffffffffffffffffffffffffffffffffffffffff163373ffffffffffffffffffffffffffffffffffffffff161480610f505750610f21610a88565b73ffffffffffffffffffffffffffffffffffffffff163373ffffffffffffffffffffffffffffffffffffffff16145b610f8f576040517f08c379a0000000000000000000000000000000000000000000000000000000008152600401610f8690612d00565b60405180910390fd5b5f8160030160146101000a81548160ff0219169083151502179055505f73ffffffffffffffffffffffffffffffffffffffff16816003015f9054906101000a900473ffffffffffffffffffffffffffffffffffffffff1673ffffffffffffffffffffffffffffffffffffffff161461113657805f015f9054906101000a900473ffffffffffffffffffffffffffffffffffffffff1673ffffffffffffffffffffffffffffffffffffffff166108fc826002015490811502906040515f60405180830381858888f1935050505015801561106a573d5f803e3d5ffd5b506110bb815f015f9054906101000a900473ffffffffffffffffffffffffffffffffffffffff16826003015f9054906101000a900473ffffffffffffffffffffffffffffffffffffffff1684611b3a565b806003015f9054906101000a900473ffffffffffffffffffffffffffffffffffffffff1673ffffffffffffffffffffffffffffffffffffffff16827fd2aa34a4fdbbc6dff6a3e56f46e0f3ae2a31d7785ff3487aa5c95c642acea5018360020154604051611129919061264f565b60405180910390a3611186565b5f73ffffffffffffffffffffffffffffffffffffffff16827fd2aa34a4fdbbc6dff6a3e56f46e0f3ae2a31d7785ff3487aa5c95c642acea5015f60405161117d9190612d60565b60405180910390a35b5050565b60606111958261136b565b505f61119f611ca2565b90505f8151116111bd5760405180602001604052805f8152506111e8565b806111c784611cb8565b6040516020016111d8929190612db3565b6040516020818303038152906040525b915050919050565b5f60055f8473ffffffffffffffffffffffffffffffffffffffff1673ffffffffffffffffffffffffffffffffffffffff1681526020019081526020015f205f8373ffffffffffffffffffffffffffffffffffffffff1673ffffffffffffffffffffffffffffffffffffffff1681526020019081526020015f205f9054906101000a900460ff16905092915050565b61128661166b565b5f73ffffffffffffffffffffffffffffffffffffffff168173ffffffffffffffffffffffffffffffffffffffff16036112f6575f6040517f1e4fbdf70000000000000000000000000000000000000000000000000000000081526004016112ed919061256f565b60405180910390fd5b6112ff816116f2565b50565b5f7f01ffc9a7000000000000000000000000000000000000000000000000000000007bffffffffffffffffffffffffffffffffffffffffffffffffffffffff1916827bffffffffffffffffffffffffffffffffffffffffffffffffffffffff1916149050919050565b5f8061137683611d82565b90505f73ffffffffffffffffffffffffffffffffffffffff168173ffffffffffffffffffffffffffffffffffffffff16036113e857826040517f7e2732890000000000000000000000000000000000000000000000000000000081526004016113df919061264f565b60405180910390fd5b80915050919050565b5f60045f8381526020019081526020015f205f9054906101000a900473ffffffffffffffffffffffffffffffffffffffff169050919050565b5f33905090565b61143e8383836001611dbb565b505050565b5f8061144e84611d82565b90505f73ffffffffffffffffffffffffffffffffffffffff168373ffffffffffffffffffffffffffffffffffffffff161461148f5761148e818486611f7a565b5b5f73ffffffffffffffffffffffffffffffffffffffff168173ffffffffffffffffffffffffffffffffffffffff161461151a576114ce5f855f80611dbb565b600160035f8373ffffffffffffffffffffffffffffffffffffffff1673ffffffffffffffffffffffffffffffffffffffff1681526020019081526020015f205f82825403925050819055505b5f73ffffffffffffffffffffffffffffffffffffffff168573ffffffffffffffffffffffffffffffffffffffff161461159957600160035f8773ffffffffffffffffffffffffffffffffffffffff1673ffffffffffffffffffffffffffffffffffffffff1681526020019081526020015f205f82825401925050819055505b8460025f8681526020019081526020015f205f6101000a81548173ffffffffffffffffffffffffffffffffffffffff021916908373ffffffffffffffffffffffffffffffffffffffff160217905550838573ffffffffffffffffffffffffffffffffffffffff168273ffffffffffffffffffffffffffffffffffffffff167fddf252ad1be2c89b69c2b068fc378daa952ba7f163c4a11628f55a4df523b3ef60405160405180910390a4809150509392505050565b611667828260405180602001604052805f81525061203d565b5050565b61167361142a565b73ffffffffffffffffffffffffffffffffffffffff16611691610a88565b73ffffffffffffffffffffffffffffffffffffffff16146116f0576116b461142a565b6040517f118cdaa70000000000000000000000000000000000000000000000000000000081526004016116e7919061256f565b60405180910390fd5b565b5f60065f9054906101000a900473ffffffffffffffffffffffffffffffffffffffff1690508160065f6101000a81548173ffffffffffffffffffffffffffffffffffffffff021916908373ffffffffffffffffffffffffffffffffffffffff1602179055508173ffffffffffffffffffffffffffffffffffffffff168173ffffffffffffffffffffffffffffffffffffffff167f8be0079c531659141344cd1fd0a4f28419497f9722a3daafe3b4186f6b6457e060405160405180910390a35050565b5f73ffffffffffffffffffffffffffffffffffffffff168373ffffffffffffffffffffffffffffffffffffffff1603611825575f6040517fa9fbf51f00000000000000000000000000000000000000000000000000000000815260040161181c919061256f565b60405180910390fd5b5f73ffffffffffffffffffffffffffffffffffffffff168273ffffffffffffffffffffffffffffffffffffffff160361189557816040517f5b08ba1800000000000000000000000000000000000000000000000000000000815260040161188c919061256f565b60405180910390fd5b8060055f8573ffffffffffffffffffffffffffffffffffffffff1673ffffffffffffffffffffffffffffffffffffffff1681526020019081526020015f205f8473ffffffffffffffffffffffffffffffffffffffff1673ffffffffffffffffffffffffffffffffffffffff1681526020019081526020015f205f6101000a81548160ff0219169083151502179055508173ffffffffffffffffffffffffffffffffffffffff168373ffffffffffffffffffffffffffffffffffffffff167f17307eab39ab6107e8899845ad3d59bd9653f200f220920489ca2b5937696c3183604051611981919061240f565b60405180910390a3505050565b5f8373ffffffffffffffffffffffffffffffffffffffff163b1115611b33578273ffffffffffffffffffffffffffffffffffffffff1663150b7a02868685856040518563ffffffff1660e01b81526004016119ec9493929190612e28565b6020604051808303815f875af1925050508015611a2757506040513d601f19601f82011682018060405250810190611a249190612e86565b60015b611aa8573d805f8114611a55576040519150601f19603f3d011682016040523d82523d5f602084013e611a5a565b606091505b505f815103611aa057836040517f64a0ae92000000000000000000000000000000000000000000000000000000008152600401611a97919061256f565b60405180910390fd5b805160208201fd5b63150b7a0260e01b7bffffffffffffffffffffffffffffffffffffffffffffffffffffffff1916817bffffffffffffffffffffffffffffffffffffffffffffffffffffffff191614611b3157836040517f64a0ae92000000000000000000000000000000000000000000000000000000008152600401611b28919061256f565b60405180910390fd5b505b5050505050565b5f73ffffffffffffffffffffffffffffffffffffffff168273ffffffffffffffffffffffffffffffffffffffff1603611baa575f6040517f64a0ae92000000000000000000000000000000000000000000000000000000008152600401611ba1919061256f565b60405180910390fd5b5f611bb683835f611443565b90505f73ffffffffffffffffffffffffffffffffffffffff168173ffffffffffffffffffffffffffffffffffffffff1603611c2857816040517f7e273289000000000000000000000000000000000000000000000000000000008152600401611c1f919061264f565b60405180910390fd5b8373ffffffffffffffffffffffffffffffffffffffff168173ffffffffffffffffffffffffffffffffffffffff1614611c9c578382826040517f64283d7b000000000000000000000000000000000000000000000000000000008152600401611c9393929190612993565b60405180910390fd5b50505050565b606060405180602001604052805f815250905090565b60605f6001611cc684612060565b0190505f8167ffffffffffffffff811115611ce457611ce3612754565b5b6040519080825280601f01601f191660200182016040528015611d165781602001600182028036833780820191505090505b5090505f82602083010190505b600115611d77578080600190039150507f3031323334353637383961626364656600000000000000000000000000000000600a86061a8153600a8581611d6c57611d6b612eb1565b5b0494505f8503611d23575b819350505050919050565b5f60025f8381526020019081526020015f205f9054906101000a900473ffffffffffffffffffffffffffffffffffffffff169050919050565b8080611df357505f73ffffffffffffffffffffffffffffffffffffffff168273ffffffffffffffffffffffffffffffffffffffff1614155b15611f25575f611e028461136b565b90505f73ffffffffffffffffffffffffffffffffffffffff168373ffffffffffffffffffffffffffffffffffffffff1614158015611e6c57508273ffffffffffffffffffffffffffffffffffffffff168173ffffffffffffffffffffffffffffffffffffffff1614155b8015611e7f5750611e7d81846111f0565b155b15611ec157826040517fa9fbf51f000000000000000000000000000000000000000000000000000000008152600401611eb8919061256f565b60405180910390fd5b8115611f2357838573ffffffffffffffffffffffffffffffffffffffff168273ffffffffffffffffffffffffffffffffffffffff167f8c5be1e5ebec7d5bd14f71427d1e84f3dd0314c0f7b2291e5b200ac8c7c3b92560405160405180910390a45b505b8360045f8581526020019081526020015f205f6101000a81548173ffffffffffffffffffffffffffffffffffffffff021916908373ffffffffffffffffffffffffffffffffffffffff16021790555050505050565b611f858383836121b1565b612038575f73ffffffffffffffffffffffffffffffffffffffff168373ffffffffffffffffffffffffffffffffffffffff1603611ff957806040517f7e273289000000000000000000000000000000000000000000000000000000008152600401611ff0919061264f565b60405180910390fd5b81816040517f177e802f00000000000000000000000000000000000000000000000000000000815260040161202f929190612ede565b60405180910390fd5b505050565b6120478383612271565b61205b61205261142a565b5f85858561198e565b505050565b5f805f90507a184f03e93ff9f4daa797ed6e38ed64bf6a1f01000000000000000083106120bc577a184f03e93ff9f4daa797ed6e38ed64bf6a1f01000000000000000083816120b2576120b1612eb1565b5b0492506040810190505b6d04ee2d6d415b85acef810000000083106120f9576d04ee2d6d415b85acef810000000083816120ef576120ee612eb1565b5b0492506020810190505b662386f26fc10000831061212857662386f26fc10000838161211e5761211d612eb1565b5b0492506010810190505b6305f5e1008310612151576305f5e100838161214757612146612eb1565b5b0492506008810190505b612710831061217657612710838161216c5761216b612eb1565b5b0492506004810190505b60648310612199576064838161218f5761218e612eb1565b5b0492506002810190505b600a83106121a8576001810190505b80915050919050565b5f8073ffffffffffffffffffffffffffffffffffffffff168373ffffffffffffffffffffffffffffffffffffffff161415801561226857508273ffffffffffffffffffffffffffffffffffffffff168473ffffffffffffffffffffffffffffffffffffffff161480612229575061222884846111f0565b5b8061226757508273ffffffffffffffffffffffffffffffffffffffff1661224f836113f1565b73ffffffffffffffffffffffffffffffffffffffff16145b5b90509392505050565b5f73ffffffffffffffffffffffffffffffffffffffff168273ffffffffffffffffffffffffffffffffffffffff16036122e1575f6040517f64a0ae920000000000000000000000000000000000000000000000000000000081526004016122d8919061256f565b60405180910390fd5b5f6122ed83835f611443565b90505f73ffffffffffffffffffffffffffffffffffffffff168173ffffffffffffffffffffffffffffffffffffffff161461235f575f6040517f73c6ac6e000000000000000000000000000000000000000000000000000000008152600401612356919061256f565b60405180910390fd5b505050565b5f604051905090565b5f80fd5b5f80fd5b5f7fffffffff0000000000000000000000000000000000000000000000000000000082169050919050565b6123a981612375565b81146123b3575f80fd5b50565b5f813590506123c4816123a0565b92915050565b5f602082840312156123df576123de61236d565b5b5f6123ec848285016123b6565b91505092915050565b5f8115159050919050565b612409816123f5565b82525050565b5f6020820190506124225f830184612400565b92915050565b5f81519050919050565b5f82825260208201905092915050565b5f5b8381101561245f578082015181840152602081019050612444565b5f8484015250505050565b5f601f19601f8301169050919050565b5f61248482612428565b61248e8185612432565b935061249e818560208601612442565b6124a78161246a565b840191505092915050565b5f6020820190508181035f8301526124ca818461247a565b905092915050565b5f819050919050565b6124e4816124d2565b81146124ee575f80fd5b50565b5f813590506124ff816124db565b92915050565b5f6020828403121561251a5761251961236d565b5b5f612527848285016124f1565b91505092915050565b5f73ffffffffffffffffffffffffffffffffffffffff82169050919050565b5f61255982612530565b9050919050565b6125698161254f565b82525050565b5f6020820190506125825f830184612560565b92915050565b6125918161254f565b811461259b575f80fd5b50565b5f813590506125ac81612588565b92915050565b5f80604083850312156125c8576125c761236d565b5b5f6125d58582860161259e565b92505060206125e6858286016124f1565b9150509250929050565b5f805f606084860312156126075761260661236d565b5b5f6126148682870161259e565b93505060206126258682870161259e565b9250506040612636868287016124f1565b9150509250925092565b612649816124d2565b82525050565b5f6020820190506126625f830184612640565b92915050565b5f60a08201905061267b5f830188612560565b6126886020830187612640565b6126956040830186612640565b6126a26060830185612560565b6126af6080830184612400565b9695505050505050565b5f602082840312156126ce576126cd61236d565b5b5f6126db8482850161259e565b91505092915050565b6126ed816123f5565b81146126f7575f80fd5b50565b5f81359050612708816126e4565b92915050565b5f80604083850312156127245761272361236d565b5b5f6127318582860161259e565b9250506020612742858286016126fa565b9150509250929050565b5f80fd5b5f80fd5b7f4e487b71000000000000000000000000000000000000000000000000000000005f52604160045260245ffd5b61278a8261246a565b810181811067ffffffffffffffff821117156127a9576127a8612754565b5b80604052505050565b5f6127bb612364565b90506127c78282612781565b919050565b5f67ffffffffffffffff8211156127e6576127e5612754565b5b6127ef8261246a565b9050602081019050919050565b828183375f83830152505050565b5f61281c612817846127cc565b6127b2565b90508281526020810184848401111561283857612837612750565b5b6128438482856127fc565b509392505050565b5f82601f83011261285f5761285e61274c565b5b813561286f84826020860161280a565b91505092915050565b5f805f80608085870312156128905761288f61236d565b5b5f61289d8782880161259e565b94505060206128ae8782880161259e565b93505060406128bf878288016124f1565b925050606085013567ffffffffffffffff8111156128e0576128df612371565b5b6128ec8782880161284b565b91505092959194509250565b5f806040838503121561290e5761290d61236d565b5b5f61291b8582860161259e565b925050602061292c8582860161259e565b9150509250929050565b7f4e487b71000000000000000000000000000000000000000000000000000000005f52602260045260245ffd5b5f600282049050600182168061297a57607f821691505b60208210810361298d5761298c612936565b5b50919050565b5f6060820190506129a65f830186612560565b6129b36020830185612640565b6129c06040830184612560565b949350505050565b7f4e487b71000000000000000000000000000000000000000000000000000000005f52601160045260245ffd5b5f6129ff826124d2565b91507fffffffffffffffffffffffffffffffffffffffffffffffffffffffffffffffff8203612a3157612a306129c8565b5b600182019050919050565b7f41756374696f6e206973206e6f742061637469766500000000000000000000005f82015250565b5f612a70601583612432565b9150612a7b82612a3c565b602082019050919050565b5f6020820190508181035f830152612a9d81612a64565b9050919050565b7f426964206d75737420626520686967686572207468616e2063757272656e74205f8201527f6869676865737420626964000000000000000000000000000000000000000000602082015250565b5f612afe602b83612432565b9150612b0982612aa4565b604082019050919050565b5f6020820190508181035f830152612b2b81612af2565b9050919050565b7f426964206d757374206265206174206c656173742074686520737461727420705f8201527f7269636500000000000000000000000000000000000000000000000000000000602082015250565b5f612b8c602483612432565b9150612b9782612b32565b604082019050919050565b5f6020820190508181035f830152612bb981612b80565b9050919050565b7f53656c6c65722063616e6e6f7420626964206f6e207468656972206f776e20635f8201527f6172000000000000000000000000000000000000000000000000000000000000602082015250565b5f612c1a602283612432565b9150612c2582612bc0565b604082019050919050565b5f6020820190508181035f830152612c4781612c0e565b9050919050565b7f41756374696f6e20697320616c726561647920656e64656400000000000000005f82015250565b5f612c82601883612432565b9150612c8d82612c4e565b602082019050919050565b5f6020820190508181035f830152612caf81612c76565b9050919050565b7f4f6e6c792073656c6c6572206f72206f776e65722063616e20656e64000000005f82015250565b5f612cea601c83612432565b9150612cf582612cb6565b602082019050919050565b5f6020820190508181035f830152612d1781612cde565b9050919050565b5f819050919050565b5f819050919050565b5f612d4a612d45612d4084612d1e565b612d27565b6124d2565b9050919050565b612d5a81612d30565b82525050565b5f602082019050612d735f830184612d51565b92915050565b5f81905092915050565b5f612d8d82612428565b612d978185612d79565b9350612da7818560208601612442565b80840191505092915050565b5f612dbe8285612d83565b9150612dca8284612d83565b91508190509392505050565b5f81519050919050565b5f82825260208201905092915050565b5f612dfa82612dd6565b612e048185612de0565b9350612e14818560208601612442565b612e1d8161246a565b840191505092915050565b5f608082019050612e3b5f830187612560565b612e486020830186612560565b612e556040830185612640565b8181036060830152612e678184612df0565b905095945050505050565b5f81519050612e80816123a0565b92915050565b5f60208284031215612e9b57612e9a61236d565b5b5f612ea884828501612e72565b91505092915050565b7f4e487b71000000000000000000000000000000000000000000000000000000005f52601260045260245ffd5b5f604082019050612ef15f830185612560565b612efe6020830184612640565b939250505056fea2646970667358221220f9e6af491108c301e5e24c1f898c55f5ca83aee5b420140c003846e07c4a81f364736f6c63430008180033",
  "linkReferences": {},
  "deployedLinkReferences": {}
}